:020000040800F2
:100000000080012085020008D5020008D502000802
:10001000D5020008D5020008D50200080000000043
:10002000000000000000000000000000D5020008F1
:10003000D502000800000000D5020008D502000823
:1000400000000000D5020008D5020008D502000813
:10005000D5020008D5020008D5020008D502000824
:10006000D5020008D5020008D5020008D502000814
:10007000D5020008D5020008D5020008D502000804
:10008000D5020008D5020008D502000800000000D3
:10009000000000000000000000000000D502000881
:1000A000D5020008D5020008D5020008D5020008D4
:1000B000D5020008D5020008D5020008D5020008C4
:1000C000D5020008D5020008D5020008D5020008B4
:1000D000D5020008D5020008D50200080000000083
:1000E000D5020008D5020008D50200080000000073
:1000F000000000000000000000000000D502000821
:1001000000000000D5020008D5020008D502000852
:1001100000000000000000000000000000000000DF
:10012000D5020008D5020008D5020008D502000853
:10013000D5020008000000000000000000000000E0
:10014000000000000000000000000000D5020008D0
:10015000D5020008D5020008D5020008D502000823
:10016000D5020008D50200080000000000000000D1
:10017000000000000000000000000000000000007F
:10018000000000000000000000000000000000006F
:04019000D50200088C
:100194000348044B834202D0034B03B11847704712
:1001A4000000002000000020000000000548064B6D
:1001B4001B1AD90F01EBA301491002D0034B03B161
:1001C40018477047000000200000002000000000D5
:1001D40010B5064C237843B9FFF7DAFF044B13B18B
:1001E4000448AFF300800123237010BD00000020F9
:1001F400000000002003000808B5054B1BB10549A9
:100204000548AFF30080BDE80840FFF7CFBF00BF4B
:10021400000000000400002020030008154B1A6BA6
:1002240042F001021A631A6B42F004021A63A3F546
:1002340060531A6822F480621A601A6842F4806279
:100244001A6003F500631A681A60DA6842F0806283
:10025400DA6004E0084A536943F020035361074B12
:100264001B69B3F5005FF5D1034A536923F02003FA
:100274005361F4E7003802400000024000080240E5
:100284000D488546AFF300800C480D490D4A002304
:1002940002E0D458C4500433C4188C42F9D30A4A37
:1002A4000A4C002301E013600432A242FBD300F0A5
:1002B40011F8FFF7B3FFFEE70080012000000020E3
:1002C4000000002040030008000000201C00002063
:1002D400FEE7000070B50D4D0D4C641BA410002604
:1002E400A64209D10B4D0C4C00F018F8641BA41065
:1002F4000026A64205D170BD55F8043B9847013647
:10030400EEE755F8043B98470136F2E73803000856
:1003140038030008380300083C030008F8B500BFA0
:10032400F8BC08BC9E467047F8B500BFF8BC08BCD2
:040334009E4670472A
:04033800FD010008BB
:04033C00D5010008DF
:040000050800028568
:00000001FF
