:020000040800F2
:100000000080012089020008D9020008D9020008F6
:10001000D9020008D9020008D90200080000000037
:10002000000000000000000000000000D9020008ED
:10003000D902000800000000D9020008D902000817
:1000400000000000D9020008D9020008D902000807
:10005000D9020008D9020008D9020008D902000814
:10006000D9020008D9020008D9020008D902000804
:10007000D9020008D9020008D9020008D9020008F4
:10008000D9020008D9020008D902000800000000C7
:10009000000000000000000000000000D90200087D
:1000A000D9020008D9020008D9020008D9020008C4
:1000B000D9020008D9020008D9020008D9020008B4
:1000C000D9020008D9020008D9020008D9020008A4
:1000D000D9020008D9020008D90200080000000077
:1000E000D9020008D9020008D90200080000000067
:1000F000000000000000000000000000D90200081D
:1001000000000000D9020008D9020008D902000846
:1001100000000000000000000000000000000000DF
:10012000D9020008D9020008D9020008D902000843
:10013000D9020008000000000000000000000000DC
:10014000000000000000000000000000D9020008CC
:10015000D9020008D9020008D9020008D902000813
:10016000D9020008D90200080000000000000000C9
:10017000000000000000000000000000000000007F
:10018000000000000000000000000000000000006F
:04019000D902000888
:100194000348044B834202D0034B03B11847704712
:1001A4000000002000000020000000000548064B6D
:1001B4001B1AD90F01EBA301491002D0034B03B161
:1001C40018477047000000200000002000000000D5
:1001D40010B5064C237843B9FFF7DAFF044B13B18B
:1001E4000448AFF300800123237010BD00000020F9
:1001F400000000002403000808B5054B1BB10549A5
:100204000548AFF30080BDE80840FFF7CFBF00BF4B
:10021400000000000400002024030008164B1A6BA1
:1002240042F001021A631A6B42F004021A63134A81
:10023400116821F480611160116841F480611160DA
:1002440002F5006211681160D168D1605A6C42F401
:1002540080425A6404E0094A536943F0200353611D
:10026400074B1B69B3F5005FF5D1044A536923F0CA
:1002740020035361F4E700BF00380240000002404D
:10028400000802400D488546AFF300800C480D4934
:100294000D4A002302E0D458C4500433C4188C42DD
:1002A400F9D30A4A0A4C002301E013600432A24243
:1002B400FBD300F011F8FFF7B1FFFEE70080012047
:1002C400000000200000002044030008000000207B
:1002D4001C000020FEE7000070B50D4D0D4C641BA2
:1002E400A4100026A64209D10B4D0C4C00F018F8BE
:1002F400641BA4100026A64205D170BD55F8043B2A
:1003040098470136EEE755F8043B98470136F2E783
:100314003C0300083C0300083C03000840030008B9
:10032400F8B500BFF8BC08BC9E467047F8B500BFDE
:08033400F8BC08BC9E467047AE
:04033C00FD010008B7
:04034000D5010008DB
:040000050800028964
:00000001FF
