:020000040800F2
:1000000000800120D102000821030008210300081C
:10001000210300082103000821030008000000005C
:1000200000000000000000000000000021030008A4
:10003000210300080000000021030008210300083C
:10004000000000002103000821030008210300082C
:1000500021030008210300082103000821030008F0
:1000600021030008210300082103000821030008E0
:1000700021030008210300082103000821030008D0
:1000800021030008210300082103000800000000EC
:100090000000000000000000000000002103000834
:1000A00021030008210300082103000821030008A0
:1000B0002103000821030008210300082103000890
:1000C0002103000821030008210300082103000880
:1000D000210300082103000821030008000000009C
:1000E0008D02000821030008210300080000000021
:1000F00000000000000000000000000021030008D4
:10010000000000002103000821030008210300086B
:1001100000000000000000000000000000000000DF
:10012000210300082103000821030008210300081F
:100130002103000800000000000000000000000093
:100140000000000000000000000000002103000883
:1001500021030008210300082103000821030008EF
:100160002103000821030008000000000000000037
:10017000000000000000000000000000000000007F
:10018000000000000000000000000000000000006F
:04019000210300083F
:100194000348044B834202D0034B03B11847704712
:1001A4000000002000000020000000000548064B6D
:1001B4001B1AD90F01EBA301491002D0034B03B161
:1001C40018477047000000200000002000000000D5
:1001D40010B5064C237843B9FFF7DAFF044B13B18B
:1001E4000448AFF300800123237010BD00000020F9
:1001F400000000006C03000808B5054B1BB105495D
:100204000548AFF30080BDE80840FFF7CFBF00BF4B
:1002140000000000040000206C03000808B5164B21
:100224001A6B42F001021A631A6B42F004021A6359
:10023400124A116821F480611160116841F48061EF
:10024400116002F50062116811605A6C42F4804238
:100254005A640B4A536943F020035361094B1A68EB
:1002640042F400521A60DA6842F40052DA6028203C
:1002740000F020F8FEE700BF003802400000024012
:1002840000380140003C0140084B5B6913F4005FF7
:100294000AD0074A536983F020035361A2F544420C
:1002A400536943F400535361704700BF003C01405D
:1002B4000000024000F01F02400901239340024A5B
:1002C40042F82030704700BF00E100E00D48854649
:1002D400AFF300800C480D490D4A002302E0D458C6
:1002E400C4500433C4188C42F9D30A4A0A4C00237C
:1002F40001E013600432A242FBD300F011F8FFF7CF
:100304008DFFFEE700800120000000200000002097
:100314008C030008000000201C000020FEE7000001
:1003240070B50D4D0D4C641BA4100026A64209D1D6
:100334000B4D0C4C00F018F8641BA4100026A642C8
:1003440005D170BD55F8043B98470136EEE755F8E2
:10035400043B98470136F2E784030008840300084D
:100364008403000888030008F8B500BFF8BC08BC83
:100374009E467047F8B500BFF8BC08BC9E4670475F
:04038400FD0100086F
:04038800D501000893
:04000005080002D11C
:00000001FF
