:020000040800F2
:1000000000800120D9020008290300082903000804
:100010002903000829030008290300080000000044
:10002000000000000000000000000000290300089C
:100030002903000800000000290300082903000824
:100040000000000029030008290300082903000814
:1000500029030008290300082903000829030008D0
:1000600029030008290300082903000829030008C0
:1000700029030008290300082903000829030008B0
:1000800029030008290300082903000800000000D4
:10009000000000000000000000000000290300082C
:1000A0002903000829030008290300082903000880
:1000B0002903000829030008290300082903000870
:1000C0002903000829030008290300082903000860
:1000D0002903000829030008290300080000000084
:1000E0009D02000829030008290300080000000001
:1000F00000000000000000000000000029030008CC
:100100000000000029030008290300082903000853
:1001100000000000000000000000000000000000DF
:1001200029030008290300082903000829030008FF
:10013000290300080000000000000000000000008B
:10014000000000000000000000000000290300087B
:1001500029030008290300082903000829030008CF
:100160002903000829030008000000000000000027
:10017000000000000000000000000000000000007F
:10018000000000000000000000000000000000006F
:040190002903000837
:100194000348044B834202D0034B03B11847704712
:1001A4000000002000000020000000000548064B6D
:1001B4001B1AD90F01EBA301491002D0034B03B161
:1001C40018477047000000200000002000000000D5
:1001D40010B5064C237843B9FFF7DAFF044B13B18B
:1001E4000448AFF300800123237010BD00000020F9
:1001F400000000007403000808B5054B1BB1054955
:100204000548AFF30080BDE80840FFF7CFBF00BF4B
:1002140000000000040000207403000808B5164B19
:100224001A6B42F001021A631A6B42F004021A6359
:10023400124A116821F480611160116841F48061EF
:10024400116002F50062116811605A6C42F4804238
:100254005A640B4A536943F020035361094B1A68EB
:1002640042F400521A60DA6842F40052DA6028203C
:1002740000F024F8FEE700BF00380240000002400E
:1002840000380140003C0140024A536983F02003D6
:10029400536170470000024008B5074B5B6913F4D3
:1002A400005F00D108BDFFF7EFFF034A536943F431
:1002B40000535361F6E700BF003C014000F01F0209
:1002C400400901239340024A42F82030704700BF9E
:1002D40000E100E00D488546AFF300800C480D496D
:1002E4000D4A002302E0D458C4500433C4188C428D
:1002F400F9D30A4A0A4C002301E013600432A242F3
:10030400FBD300F011F8FFF789FFFEE7008001201E
:1003140000000020000000209403000800000020DA
:100324001C000020FEE7000070B50D4D0D4C641B51
:10033400A4100026A64209D10B4D0C4C00F018F86D
:10034400641BA4100026A64205D170BD55F8043BD9
:1003540098470136EEE755F8043B98470136F2E733
:100364008C0300088C0300088C0300089003000829
:10037400F8B500BFF8BC08BC9E467047F8B500BF8E
:08038400F8BC08BC9E4670475E
:04038C00FD01000867
:04039000D50100088B
:04000005080002D914
:00000001FF
